:03000000020003F8
:0C000300787FE4F6D8FD75812702004AE2
:1000E4000808151F04041C111F000810151F040024
:1000F400041F1500081804041F040A1A1500082018
:080104000E150E1F0404040097
:0A012F00C2918D80C2A5D2A57F0603
:10013900EFD3940040107D647C00ED1D70011CED2F
:060149004C70F71F80EA74
:01014F00228D
:10010D007FE87E03758080C290D291D2A5E58030C4
:10011D00E70DEF1FAC0670011E4C60030080EEC2B0
:01012D00A52C
:01012E0022AE
:0D016400AD0712010DC29012012FC2A5229D
:0D017100AD0712010DD29012012FC2A52280
:100150007F381201647F0C1201647F061201647FF4
:040160000102016433
:10008F00120150E4FBEB2440FF12016474182BF8AB
:10009F00E6FF1201710BBB08ECE4FBEB2478FF12B7
:1000AF00016474202BF8E6FF1201710BBB08ECE41E
:1000BF00FBEB2480FF120164E4FF1201710BBB10F4
:1000CF00F0E4FBEB24C0FF1201647F071201710BF8
:0500DF00BB10F080FEE3
:10000F0002008FE493A3F8E493A34003F68001F278
:10001F0008DFF48029E493A3F85407240CC8C333F2
:10002F00C4540F4420C8834004F456800146F6DFC1
:10003F00E4800B01020408102040809000E4E47E6D
:10004F00019360BCA3FF543F30E509541FFEE493B6
:10005F00A360010ECF54C025E060A840B8E493A37D
:10006F00FAE493A3F8E493A3C8C582C8CAC583CAA8
:10007F00F0A3C8C582C8CAC583CADFE9DEE780BE60
:01010C0000F2
:00000001FF
