:10038C000C185E081C5A42524A477520596F6E670A
:10039C00205A68652020202020004368756E204A72
:1003AC0069652058752051752020004D757369635F
:1003BC002054657374202020202020004E6F746818
:0D03CC00696E6720202020202020202000C6
:0A046C000410000000000218000058
:0A042300C2918D80C2A5D2A57F060C
:10042D00EFD3940040107D647C00ED1D70011CED38
:06043D004C70F71F80EA7D
:010443002296
:100401007FE87E03758080C290D291D2A5E58030CD
:10041100E70DEF1FAC0670011E4C60030080EEC2B9
:01042100A535
:0104220022B7
:0D000300AD07120401C290120423C2A52211
:070444003520F583E493FF6E
:0D044B00AD0F120401D290120423C2A522AD
:100458007F381200037F0F1200037F061200037F0C
:04046800010200038A
:03001300020016D2
:0D001600C0E0C0F0C083C082C0D075D0082B
:10002300AF8CEFFEAD8A7C00E42DFFEC3EFEE48F47
:10003300178E16F515F514F58CF58A7F407E1FFD96
:10004300AB17AA16A915A814D31202EF4020E47F18
:10005300B07E36FDFCA8141202EF5012751F007516
:100063001E00751D00751C00751B01020216E51BA1
:10007300640160030201567FAA7E05FDFCAB17AA4B
:1000830016A915A814D31202EF4047E47FB87E0BDC
:10009300FDFCA8141202EF5039E47B08FAF9F8AF1B
:1000A3001FAE1EAD1DAC1C12025D74102FF8E6C30B
:1000B300134480FEC00E74102FF8D0E0F6E51F2421
:1000C30001F51FE4351EF51EE4351DF51DE4351C51
:1000D300F51CE47FBC7E02FDFCAB17AA16A915A88C
:1000E30014D31202EF4040E47FAA7E05FDFCA8145E
:1000F3001202EF5032E47B08FAF9F8AF1FAE1EADDF
:100103001DAC1C12025D74102FF8C008E6C313D097
:1001130008F6E51F2401F51FE4351EF51EE4351D21
:10012300F51DE4351CF51CE47F20FEFDFCAB1FAA86
:100133001EA91DA81CC31202EF7018F51FF51EF5AA
:100143001DF51CF51BE513F4B51205751A018003A3
:10015300751A00E51A640160030202167F8012001B
:100163000390038CE493B512277520007521007466
:10017300952521F58274031204440521E5217002BB
:100183000520C39410E5206480948040E2020213AA
:1001930090038DE493B5122675200075210074A693
:1001A3002521F58274031204440521E5217002051B
:1001B30020C39410E5206480948040E28052900331
:1001C3008EE493B5122675200075210074B725219E
:1001D300F58274031204440521E52170020520C34E
:1001E3009410E5206480948040E28024752000759B
:1001F300210074C82521F58274031204440521E506
:100203002170020520C39410E5206480948040E2AD
:03021300751A0059
:0B021600D0D0D082D083D0F0D0E032F6
:1003D900E4F51FF51EF51DF51CF51BD2AFD28AD227
:1003E900AA758911F58CF58AD28CC2917FC812043D
:0803F9002DC2A512045880FE7C
:03000000020300F8
:0C030000787FE4F6D8FD758121020347E8
:1002210075F008758200EF2FFFEE33FECD33CDCC94
:1002310033CCC58233C5829BED9AEC99E582984017
:100241000CF582EE9BFEED9AFDEC99FC0FD5F0D6F4
:10025100E4CEFBE4CDFAE4CCF9A88222B800C1B91E
:100261000059BA002DEC8BF084CFCECDFCE5F0CB5C
:10027100F97818EF2FFFEE33FEED33FDEC33FCEB95
:1002810033FB10D703994004EB99FB0FD8E5E4F950
:10029100FA227818EF2FFFEE33FEED33FDEC33FC3D
:1002A100C933C910D7059BE99A4007EC9BFCE99A31
:1002B100F90FD8E0E4C9FAE4CCFB2275F010EF2F76
:1002C100FFEE33FEED33FDCC33CCC833C810D70776
:1002D1009BEC9AE899400AED9BFDEC9AFCE899F8B1
:0E02E1000FD5F0DAE4CDFBE4CCFAE4C8F92244
:1002EF00EB9FF5F0EA9E42F0E99D42F0E89C45F065
:0102FF0022DC
:10030C000203D9E493A3F8E493A34003F68001F22B
:10031C0008DFF48029E493A3F85407240CC8C333F2
:10032C00C4540F4420C8834004F456800146F6DFC1
:10033C00E4800B010204081020408090046CE47EE1
:10034C00019360BCA3FF543F30E509541FFEE493B6
:10035C00A360010ECF54C025E060A840B8E493A37D
:10036C00FAE493A3F8E493A3C8C582C8CAC583CAA8
:10037C00F0A3C8C582C8CAC583CADFE9DEE780BE60
:010476000085
:00000001FF
