:03000000020A7A77
:0C0A7A00787FE4F6D8FD758128020AC1DF
:1000160000A8001700A8000B00BD000B00D4002E9E
:1000260000A8001700A8000B00BD000B00D4002E8E
:1000360000A800170151000B00BD000B00D40017EB
:10004600011B00170151001700FC0017011B0022BD
:1000560000FC000B011B001700FC0017011B00220F
:1000660000FC000B011B001700FC0017011B00170A
:1000760000FC0017011B001700FC0017011B0017EE
:1000860000FC0017011B001700FC0017011B000BEA
:1000960000FC000B00E0000B00FC000B011B000B3A
:1000A60000FC000B00E0000B00FC000B011B000B2A
:1000B60000FC000B00E0000B00FC000B011B000B1A
:1000C60000FC000B00E0000B00FC000B011B002EE7
:1000D600011B002E011B005B011B0017011B000BFF
:1000E60000FC000B011B0017011B000B00FC000BA2
:1000F60000D4001700D4000B00FC000B00D400173E
:1001060000D4000B00BD000B00A8001700A8000BD0
:1001160000BD000B00A8001700A8000B00BD000BD7
:1001260000A8001700A8000B00BD000B00D40017A4
:1001360000D4000B00FC000B011B0017011B000B79
:1001460000FC000B011B0017011B000B00FC000B41
:1001560000D4001700D4000B00FC000B00D40017DD
:1001660000D4000B00BD000B00A8001700A8000B70
:1001760000BD000B00A8001700A8000B00BD000B77
:1001860000A8001700A8000B00BD000B00D4001744
:1001960000D4000B00FC000B011B0017011B000B19
:1001A60000FC000B00D4001700D4000B017A000BF2
:1001B60000A8001700A8000B017A000B00D4002E3F
:1001C60000D4002E0151002E00D4002E0151002E25
:1001D60000D4002200FC000B00D4001700FC00171E
:1001E600011B001700D4001700FC0017011B0017A5
:1001F60001510017011B0017017A00170151001762
:10020600011B001700FC0017015100170151000BDC
:10021600017A000B01A8002E00A8001700A8000B09
:1002260000BD000B00D400B600D4002200A8000BCD
:1002360000BD001700A80017011B004400D40017DA
:1002460000FC0017011B000B01510017017A000B7F
:100256000151000B011B005B00D4002200A8000B1B
:1002660000BD001700A80017011B004401A80017D5
:1002760000FC0017011B001701510017017A001737
:1002860001A8005B00D4002200A8000B00BD0017E7
:1002960000A80017011B004400D4001700FC00173B
:1002A600011B000B01510017017A000B0151000BD5
:1002B600011B005B00D4002200A8000B00BD001744
:1002C60000A80017011B004401A8001700FC001736
:1002D600011B001701510017017A001701A8005BE6
:1002E60000FC001700FC0017011B00170151002E2F
:1002F60000FC0017011B00170151002E00FC00171F
:10030600011B00170151002E00FC0017011B0017EE
:1003160000FC0017011B001700FC0017011B00174B
:1003260000FC0017008D0017007E0017008D0017D7
:10033600007E0017008D0017007E0017008D001745
:10034600007E0017008D002E008D002E008D008986
:100356000000008A0019007B00190074001900686B
:100366000019007B00190074001900740032007433
:100376000019007B00190074001900680019007B41
:100386000019007400190074003200740019006826
:100396000019005C001900680019005C001900686B
:1003A6000019005C0032005C001900680019005C4E
:1003B6000032004E0032005C0032008A0019007BD9
:1003C60000190074001900680019007B00190074F8
:1003D60000190074003200740019007B00190074C3
:1003E600001900680019007B0019007400190074D8
:1003F60000320074001900680019005C00190068DA
:100406000019005C001900680019005C0032005CED
:10041600001900680019005C0032004E0032005CD2
:100426000032004E0032005C004B004E0019005CAA
:10043600004B004E0019005C0019004E00190045E3
:100446000019005C0019004E0032004E0032005CBC
:10045600004B004E0019005C004B004E0019005C7A
:100466000019004E001900450019005C0019004EE5
:100476000032004E0032005C001900680019006866
:1004860000320068003200740032005C0019005C23
:100496000019006800190068003200680032007414
:1004A600003200740019008A00C803E80064FFFFE8
:1004B6000032004E0019004E0019005C0019006859
:1004C6000019006800320068003200740019005CF0
:1004D6000019005C00190068001900680032006805
:1004E600003200740019007400190000008A001917
:1004F600007B0019008A0019007B0019008A001988
:10050600007B0019008A0019007B0019008A001977
:10051600007B0019008A0019007B0019008A001967
:10052600007B0019008A0019007B0019008A001957
:10053600007B0019008A0019007B0019008A001947
:10054600007B0019008A0019007B0019008A001937
:10055600007B0019008A0019007B0019008A001927
:10056600007B0019008A0019007B001900000000BA
:100576000C185E081C5A42524A477520596F6E671E
:10058600205A68652020202020004368756E204A86
:1005960069652058752051752020004D7573696373
:1005A6002054657374202020202020004E6F74682C
:0D05B600696E6720202020202020202000DA
:100B620002190000021F0000031BFF05740410009D
:030B720000000080
:03000B00020B766F
:100B7600C0E0758CD8758AEFE51A151A700215193A
:030B8600D0E0328A
:0A0B9800EF1F70011E144E70F722CB
:0F0B0600C2918F80C2A57F06120B15D2A57F0664
:100B1500EFD3940040107D647C00ED1D70011CED49
:060B25004C70F71F80EA8E
:010B2B0022A7
:100B2C007FE87E03758080C290D291D2A5E580309B
:100B3C00E70DEF1FAC0670011E4C60030080EEC287
:010B4C00A503
:010B4D002285
:08000300C290120B06C2A522F7
:070B89003527F583E493FF1B
:080B9000D290120B06C2A5224F
:100B4E007F381200037F0F1200037F061200037F0F
:040B5E00010200038D
:030013000205C320
:0D05C300C0E0C0F0C083C082C0D075D00879
:1005D000752700752800C2A9AF8DEFFEAD8B7C009A
:1005E000E42DFFEC3EFEE48F178E16F515F514F59D
:1005F0008DF58B7F407E1FFDAB17AA16A915A81499
:10060000D3120A694020E47FB07E36FDFCA81412A4
:100610000A695012752400752300752200752100A7
:10062000751E01020810E51E6401600302070D7FBC
:10063000AA7E05FDFCAB17AA16A915A814D3120AA9
:10064000694047E47FB87E0BFDFCA814120A69508C
:1006500039E47B08FAF9F8AF24AE23AD22AC2112BD
:1006600009C174102FF8E6C3134480FEC00E741045
:100670002FF8D0E0F6E5242401F524E43523F52312
:10068000E43522F522E43521F521E47FBC7E02FD2C
:10069000FCAB17AA16A915A814D3120A694040E4A6
:1006A0007FAA7E05FDFCA814120A695032E47B087B
:1006B000FAF9F8AF24AE23AD22AC211209C17410AF
:1006C0002FF8C008E6C313D008F6E5242401F5246A
:1006D000E43523F523E43522F522E43521F521E440
:1006E0007F20FEFDFCAB24AA23A922A821C3120A65
:1006F00069701AF524F523F522F521F51EE513F4AA
:10070000B512057518018005751800D2A9E51864A1
:100710000160030208107F01120003900576E49344
:1007200065127035751BFF751C03751D587F80128F
:100730000003752700752800747F2528F58274054D
:10074000120B890528E52870020527C39410E527B8
:100750006480948040E2020805900577E493651276
:100760007034751BFF751C00751D167F8012000309
:1007700075270075280074902528F5827405120BE2
:10078000890528E52870020527C39410E5276480B1
:10079000948040E2806F900578E493651270347520
:1007A0001BFF751C04751DF27F8012000375270066
:1007B00075280074A12528F5827405120B89052877
:1007C000E52870020527C39410E5276480948040D3
:1007D000E28032751BFF751C05751D747F80120049
:1007E0000375270075280074B22528F58274051258
:1007F0000B890528E52870020527C39410E52764B6
:1008000080948040E2751800751F00752000D2A901
:0B081000D0D0D082D083D0F0D0E032F6
:10081B00758911E4F524F523F522F521F51ED2AFE8
:10082B00D2AAD2A975B80CD28A758CD8758AEFF575
:10083B008DF58BD28ED2A3C2917FC8120B15C2A598
:10084B00120B4EAB1BAA1CA91D74FF900574651BE4
:10085B00700AE51D65827004E51C65837004D2A3E4
:10086B008022E52025E0FFE51F33AB1BAA1CA91D49
:10087B008F82F58312094DF52685F0254525700AE3
:10088B00F51FF5207FE87E038056E526B4E818E5D2
:10089B0025B4031374022520F520E4351FF51FD270
:1008AB00A37F647E008039AE25AF26E4FCFD7BFF81
:1008BB007AFFF9F8C3120A53701374022520F5203E
:1008CB00E4351FF51FD2A37F327E008013E526F49B
:1008DB00452570120520E5207002051F7FF07EB9BB
:1008EB00120B9802084E0520E520AE1F7002051F63
:1008FB001425E0FFEE33AB1BAA1CA91D8F82F583D9
:10090B0012094DFFE5F0C313FEEF13FDAC060520F6
:10091B00E520AE1F7002051F1425E0FFEE338F821A
:10092B00F58312094DF51A85F019D28CE51A451984
:10093B00600BB2A3AF05AE04120B9880EFC28C0212
:02094B00084E54
:100A860002081BE493A3F8E493A34003F68001F263
:100A960008DFF48029E493A3F85407240CC8C33371
:100AA600C4540F4420C8834004F456800146F6DF40
:100AB600E4800B0102040810204080900B62E47E63
:100AC600019360BCA3FF543F30E509541FFEE49335
:100AD600A360010ECF54C025E060A840B8E493A3FC
:100AE600FAE493A3F8E493A3C8C582C8CAC583CA27
:100AF600F0A3C8C582C8CAC583CADFE9DEE780BEDF
:010B7500007F
:10094D00BB0110E58229F582E5833AF583E0F5F0E8
:10095D00A3E0225009E92582F886F008E622BBFEC5
:10096D000AE92582F8E2F5F008E222E5832AF5830B
:08097D00E993F5F0A3E99322D0
:1009850075F008758200EF2FFFEE33FECD33CDCC29
:1009950033CCC58233C5829BED9AEC99E5829840AC
:1009A5000CF582EE9BFEED9AFDEC99FC0FD5F0D689
:1009B500E4CEFBE4CDFAE4CCF9A88222B800C1B9B3
:1009C5000059BA002DEC8BF084CFCECDFCE5F0CBF1
:1009D500F97818EF2FFFEE33FEED33FDEC33FCEB2A
:1009E50033FB10D703994004EB99FB0FD8E5E4F9E5
:1009F500FA227818EF2FFFEE33FEED33FDEC33FCD2
:100A0500C933C910D7059BE99A4007EC9BFCE99AC5
:100A1500F90FD8E0E4C9FAE4CCFB2275F010EF2F0A
:100A2500FFEE33FEED33FDCC33CCC833C810D7070A
:100A35009BEC9AE899400AED9BFDEC9AFCE899F845
:0E0A45000FD5F0DAE4CDFBE4CCFAE4C8F922D8
:100A5300EB9FF5F0EA9E42F0E99D42F0EC6480C81A
:060A630064809845F022BA
:100A6900EB9FF5F0EA9E42F0E99D42F0E89C45F0E3
:010A7900225A
:00000001FF
