:100053006D637573747564696F2E636F6D2E636E54
:100063000054454C3A31353938303835343536302B
:1000730031003031323334353637383961626364B5
:03008300656600AF
:07008600AF061200A47F6425
:10008D00EFD3940040107D647C00ED1D70011CEDDC
:06009D004C70F71F80EA21
:0100A300223A
:1000A400D2908F807F0612008DD2A57F0612008D1C
:0700B400C2A57F0602008DCA
:1000BB00C2908F807F0612008DD2A57F0612008D15
:0700CB00C2A57F0602008DB3
:1000D2007F381200BB7F0F1200BB7F061200BB7F6E
:0400E200010200BB5C
:10000300C2917FC812008DC2A57F0612008D120017
:10001300D27F801200BB7E201200860EBE30F97F95
:10002300C01200BB7E301200860EBE40F97F011263
:1000330000BB7F801200BB7E401200860EBE50F9CB
:100043007FC01200BB7E501200860EBE60F980FE98
:030000000200E615
:0C00E600787FE4F6D8FD75810702000366
:00000001FF
