:1003E400039F250D9949411F011911C1638521718D
:1003F400477520596F6E67205A6865004368756EAB
:10040400204A6965205875205175004D75736963DC
:100414002054657374004E6F7468696E67202020E1
:0104240000D7
:0A00030004100000000002180000C5
:0C0425003520F583E493FF1204937F0A56
:10043100EFD3940040107D647C00ED1D70011CED34
:060441004C70F71F80EA79
:010447002292
:10049300D290D2A58F807F06120431C2A57F0602B7
:0204A300043122
:1004A500C290D2A58F807F06120431C2A57F0602B5
:0204B500043110
:10046B007F381204A57F0E1204A57F061204A57F08
:04047B00010204A5D1
:10047F00EFD39400400D7EFA7DFA0DED70FCDEF89F
:03048F001F80EDDE
:010492002247
:100448007BC87A00E5189003E493F5807FC812040E
:100458007FE51993F5807FC812047F7580FD7FC8FA
:0304680002047F0C
:03001300020016D2
:0D001600C0E0C0F0C083C082C0D075D0082B
:10002300AF8CEFFEAD8A7C00E42DFFEC3EFEE48F47
:10003300178E16F515F514F58CF58A7F407E1FFD96
:10004300AB17AA16A915A814D31202E94020E47F1E
:10005300B07E36FDFCA8141202E95012751F00751C
:100063001E00751D00751C00751B01020210E51BA7
:10007300640160030201567FAA7E05FDFCAB17AA4B
:1000830016A915A814D31202E94047E47FB87E0BE2
:10009300FDFCA8141202E95039E47B08FAF9F8AF21
:1000A3001FAE1EAD1DAC1C12025774102FF8E6C311
:1000B300134480FEC00E74102FF8D0E0F6E51F2421
:1000C30001F51FE4351EF51EE4351DF51DE4351C51
:1000D300F51CE47FBC7E02FDFCAB17AA16A915A88C
:1000E30014D31202E94040E47FAA7E05FDFCA81464
:1000F3001202E95032E47B08FAF9F8AF1FAE1EADE5
:100103001DAC1C12025774102FF8C008E6C313D09D
:1001130008F6E51F2401F51FE4351EF51EE4351D21
:10012300F51DE4351CF51CE47F20FEFDFCAB1FAA86
:100133001EA91DA81CC31202E97018F51FF51EF5B0
:100143001DF51CF51BE513F4B51205751A018003A3
:10015300751A00E51A640160030202109003E49328
:10016300B5122775200075210074F42521F58274DA
:10017300031204250521E52170020520C3940AE535
:10018300206480948040E202020D9003E5E493B57D
:10019300122675200075210074002521F582740450
:1001A3001204250521E52170020520C3940AE520E8
:1001B3006480948040E280529003E6E493B5122673
:1001C300752000752100740F2521F5827404120433
:1001D300250521E52170020520C3940AE5206480EA
:1001E300948040E28024752000752100741A252133
:1001F300F58274041204250521E52170020520C34C
:0D020300940AE5206480948040E2751A00A2
:0B021000D0D0D082D083D0F0D0E032FC
:10038600E4F51FF51EF51DF51CF51BD2AFD28AD27A
:10039600AA758911F58CF58AD28CC2917FC8120490
:1003A60031C2A512046B7F801204A5E51AB40110B0
:1003B600E512540FF519E512C4540FF518E4F51AB1
:1003C600752200752364D3E5239400E5229400404A
:0E03D600DA120448E523152370EC152280E8A6
:030000000202FAFF
:0C02FA00787FE4F6D8FD758123020341F3
:10021B0075F008758200EF2FFFEE33FECD33CDCC9A
:10022B0033CCC58233C5829BED9AEC99E58298401D
:10023B000CF582EE9BFEED9AFDEC99FC0FD5F0D6FA
:10024B00E4CEFBE4CDFAE4CCF9A88222B800C1B924
:10025B000059BA002DEC8BF084CFCECDFCE5F0CB62
:10026B00F97818EF2FFFEE33FEED33FDEC33FCEB9B
:10027B0033FB10D703994004EB99FB0FD8E5E4F956
:10028B00FA227818EF2FFFEE33FEED33FDEC33FC43
:10029B00C933C910D7059BE99A4007EC9BFCE99A37
:1002AB00F90FD8E0E4C9FAE4CCFB2275F010EF2F7C
:1002BB00FFEE33FEED33FDCC33CCC833C810D7077C
:1002CB009BEC9AE899400AED9BFDEC9AFCE899F8B7
:0E02DB000FD5F0DAE4CDFBE4CCFAE4C8F9224A
:1002E900EB9FF5F0EA9E42F0E99D42F0E89C45F06B
:0102F90022E2
:10030600020386E493A3F8E493A34003F68001F284
:1003160008DFF48029E493A3F85407240CC8C333F8
:10032600C4540F4420C8834004F456800146F6DFC7
:10033600E4800B0102040810204080900003E47E54
:10034600019360BCA3FF543F30E509541FFEE493BC
:10035600A360010ECF54C025E060A840B8E493A383
:10036600FAE493A3F8E493A3C8C582C8CAC583CAAE
:10037600F0A3C8C582C8CAC583CADFE9DEE780BE66
:01000D0000F2
:00000001FF
